{
  "contractName": "Exchange",
  "abi": [
    {
      "stateMutability": "payable",
      "type": "fallback",
      "payable": true
    },
    {
      "inputs": [
        {
          "internalType": "uint256",
          "name": "",
          "type": "uint256"
        }
      ],
      "name": "tokenIds",
      "outputs": [
        {
          "internalType": "uint256",
          "name": "",
          "type": "uint256"
        }
      ],
      "stateMutability": "view",
      "type": "function",
      "constant": true
    },
    {
      "inputs": [
        {
          "internalType": "uint256",
          "name": "",
          "type": "uint256"
        }
      ],
      "name": "tokenPriceMap",
      "outputs": [
        {
          "internalType": "uint256",
          "name": "",
          "type": "uint256"
        }
      ],
      "stateMutability": "view",
      "type": "function",
      "constant": true
    },
    {
      "stateMutability": "payable",
      "type": "receive",
      "payable": true
    },
    {
      "inputs": [],
      "name": "getAllTokenId",
      "outputs": [
        {
          "internalType": "uint256[]",
          "name": "",
          "type": "uint256[]"
        }
      ],
      "stateMutability": "view",
      "type": "function",
      "constant": true
    },
    {
      "inputs": [
        {
          "internalType": "uint256",
          "name": "tokenId",
          "type": "uint256"
        },
        {
          "internalType": "uint256",
          "name": "price",
          "type": "uint256"
        }
      ],
      "name": "putOnNFT",
      "outputs": [
        {
          "internalType": "uint256",
          "name": "",
          "type": "uint256"
        }
      ],
      "stateMutability": "nonpayable",
      "type": "function"
    },
    {
      "inputs": [
        {
          "internalType": "uint256",
          "name": "tokenId",
          "type": "uint256"
        },
        {
          "internalType": "address payable",
          "name": "to",
          "type": "address"
        }
      ],
      "name": "tradePass",
      "outputs": [],
      "stateMutability": "nonpayable",
      "type": "function"
    }
  ],
  "bytecode": "0x608060405234801561001057600080fd5b506107a7806100206000396000f3fe60806040526004361061004e5760003560e01c8063047640891461005757806368986f8f14610082578063983f06b1146100ab578063b6f73cd7146100e8578063d58778d61461012557610055565b3661005557005b005b34801561006357600080fd5b5061006c610162565b6040516100799190610557565b60405180910390f35b34801561008e57600080fd5b506100a960048036038101906100a491906103cb565b6101ba565b005b3480156100b757600080fd5b506100d260048036038101906100cd9190610407565b6102c5565b6040516100df91906105b9565b60405180910390f35b3480156100f457600080fd5b5061010f600480360381019061010a91906103a2565b610310565b60405161011c91906105b9565b60405180910390f35b34801561013157600080fd5b5061014c600480360381019061014791906103a2565b610328565b60405161015991906105b9565b60405180910390f35b606060008054806020026020016040519081016040528092919081815260200182805480156101b057602002820191906000526020600020905b81548152602001906001019080831161019c575b5050505050905090565b6000600160008481526020019081526020016000205411610210576040517f08c379a000000000000000000000000000000000000000000000000000000000815260040161020790610599565b60405180910390fd5b60004711610253576040517f08c379a000000000000000000000000000000000000000000000000000000000815260040161024a90610579565b60405180910390fd5b8073ffffffffffffffffffffffffffffffffffffffff166108fc61029561028e6001600087815260200190815260200160002054600a61034c565b6009610362565b9081150290604051600060405180830381858888f193505050501580156102c0573d6000803e3d6000fd5b505050565b60008083908060018154018082558091505060019003906000526020600020016000909190919091505581600160008581526020019081526020016000208190555082905092915050565b60016020528060005260406000206000915090505481565b6000818154811061033857600080fd5b906000526020600020016000915090505481565b6000818361035a919061061e565b905092915050565b60008183610370919061064f565b905092915050565b60008135905061038781610743565b92915050565b60008135905061039c8161075a565b92915050565b6000602082840312156103b457600080fd5b60006103c28482850161038d565b91505092915050565b600080604083850312156103de57600080fd5b60006103ec8582860161038d565b92505060206103fd85828601610378565b9150509250929050565b6000806040838503121561041a57600080fd5b60006104288582860161038d565b92505060206104398582860161038d565b9150509250929050565b600061044f8383610539565b60208301905092915050565b6000610466826105e4565b61047081856105fc565b935061047b836105d4565b8060005b838110156104ac5781516104938882610443565b975061049e836105ef565b92505060018101905061047f565b5085935050505092915050565b60006104c660178361060d565b91507f436f6e74726163742068617665206e6f742065746865720000000000000000006000830152602082019050919050565b600061050660128361060d565b91507f546f6b656e206973206e6f7420657873697400000000000000000000000000006000830152602082019050919050565b610542816106db565b82525050565b610551816106db565b82525050565b60006020820190508181036000830152610571818461045b565b905092915050565b60006020820190508181036000830152610592816104b9565b9050919050565b600060208201905081810360008301526105b2816104f9565b9050919050565b60006020820190506105ce6000830184610548565b92915050565b6000819050602082019050919050565b600081519050919050565b6000602082019050919050565b600082825260208201905092915050565b600082825260208201905092915050565b6000610629826106db565b9150610634836106db565b92508261064457610643610714565b5b828204905092915050565b600061065a826106db565b9150610665836106db565b9250817fffffffffffffffffffffffffffffffffffffffffffffffffffffffffffffffff048311821515161561069e5761069d6106e5565b5b828202905092915050565b60006106b4826106bb565b9050919050565b600073ffffffffffffffffffffffffffffffffffffffff82169050919050565b6000819050919050565b7f4e487b7100000000000000000000000000000000000000000000000000000000600052601160045260246000fd5b7f4e487b7100000000000000000000000000000000000000000000000000000000600052601260045260246000fd5b61074c816106a9565b811461075757600080fd5b50565b610763816106db565b811461076e57600080fd5b5056fea264697066735822122089d27d39f6cb1dd18d6b04e1a071c8fad6ef13a6f58dbd506c12df078a76454864736f6c63430008000033",
  "immutableReferences": {},
  "source": "// SPDX-License-Identifier: MIT\r\npragma solidity >=0.4.22 <0.9.0;\r\n\r\nimport \"@openzeppelin/contracts/utils/math/SafeMath.sol\";\r\n\r\n// \r\ncontract Exchange {\r\n\r\n    // \r\n    uint[] public tokenIds;\r\n    // \r\n    mapping(uint => uint) public tokenPriceMap;\r\n\r\n    // NFT\r\n    function getAllTokenId() external view returns (uint[] memory) {\r\n        return tokenIds;\r\n    }\r\n\r\n    // \r\n    function putOnNFT(uint tokenId, uint price) public returns (uint) {\r\n        // require nft TODO\r\n        tokenIds.push(tokenId);\r\n        tokenPriceMap[tokenId] = price;\r\n        return tokenId;\r\n    }\r\n\r\n    // \r\n    function tradePass(uint tokenId, address payable to) public {\r\n        // 10%\r\n        require(tokenPriceMap[tokenId] > 0, 'Token is not exsit');\r\n        require(address(this).balance > 0, 'Contract have not ether');\r\n        // TODO  demo \r\n        to.transfer(SafeMath.mul(SafeMath.div(tokenPriceMap[tokenId], 10), 9));\r\n    }\r\n\r\n    receive () payable external {}\r\n\r\n    fallback() external payable {}\r\n}",
  "sourcePath": "E:/onee/nft-exchange-eth/contracts/Exchange.sol",
  "compiler": {
    "name": "solc",
    "version": "0.8.0+commit.c7dfd78e.Emscripten.clang"
  },
  "schemaVersion": "3.3.4",
  "updatedAt": "2021-05-11T12:22:37.520Z",
  "networkType": "ethereum",
  "devdoc": {
    "kind": "dev",
    "methods": {},
    "version": 1
  },
  "userdoc": {
    "kind": "user",
    "methods": {},
    "version": 1
  }
}