{
  "contractName": "Exchange",
  "abi": [
    {
      "inputs": [
        {
          "internalType": "uint256",
          "name": "",
          "type": "uint256"
        }
      ],
      "name": "goodsList",
      "outputs": [
        {
          "internalType": "string",
          "name": "",
          "type": "string"
        }
      ],
      "stateMutability": "view",
      "type": "function",
      "constant": true
    },
    {
      "inputs": [
        {
          "internalType": "string",
          "name": "tokenURI",
          "type": "string"
        }
      ],
      "name": "putOnGoods",
      "outputs": [
        {
          "internalType": "string",
          "name": "",
          "type": "string"
        }
      ],
      "stateMutability": "nonpayable",
      "type": "function"
    }
  ],
  "bytecode": "0x608060405234801561001057600080fd5b50610529806100206000396000f3fe608060405234801561001057600080fd5b50600436106100365760003560e01c806328d27f091461003b578063d9de8cf71461006b575b600080fd5b610055600480360381019061005091906102ee565b61009b565b6040516100629190610350565b60405180910390f35b610085600480360381019061008091906102ad565b610147565b6040516100929190610350565b60405180910390f35b600081815481106100ab57600080fd5b9060005260206000200160009150905080546100c69061043b565b80601f01602080910402602001604051908101604052809291908181526020018280546100f29061043b565b801561013f5780601f106101145761010080835404028352916020019161013f565b820191906000526020600020905b81548152906001019060200180831161012257829003601f168201915b505050505081565b606060008290806001815401808255809150506001900390600052602060002001600090919091909150908051906020019061018492919061018d565b50819050919050565b8280546101999061043b565b90600052602060002090601f0160209004810192826101bb5760008555610202565b82601f106101d457805160ff1916838001178555610202565b82800160010185558215610202579182015b828111156102015782518255916020019190600101906101e6565b5b50905061020f9190610213565b5090565b5b8082111561022c576000816000905550600101610214565b5090565b600061024361023e846103a3565b610372565b90508281526020810184848401111561025b57600080fd5b6102668482856103f9565b509392505050565b600082601f83011261027f57600080fd5b813561028f848260208601610230565b91505092915050565b6000813590506102a7816104dc565b92915050565b6000602082840312156102bf57600080fd5b600082013567ffffffffffffffff8111156102d957600080fd5b6102e58482850161026e565b91505092915050565b60006020828403121561030057600080fd5b600061030e84828501610298565b91505092915050565b6000610322826103d3565b61032c81856103de565b935061033c818560208601610408565b610345816104cb565b840191505092915050565b6000602082019050818103600083015261036a8184610317565b905092915050565b6000604051905081810181811067ffffffffffffffff821117156103995761039861049c565b5b8060405250919050565b600067ffffffffffffffff8211156103be576103bd61049c565b5b601f19601f8301169050602081019050919050565b600081519050919050565b600082825260208201905092915050565b6000819050919050565b82818337600083830152505050565b60005b8381101561042657808201518184015260208101905061040b565b83811115610435576000848401525b50505050565b6000600282049050600182168061045357607f821691505b602082108114156104675761046661046d565b5b50919050565b7f4e487b7100000000000000000000000000000000000000000000000000000000600052602260045260246000fd5b7f4e487b7100000000000000000000000000000000000000000000000000000000600052604160045260246000fd5b6000601f19601f8301169050919050565b6104e5816103ef565b81146104f057600080fd5b5056fea2646970667358221220da557cb6db85cdb7903529b560e2185ad97692f086e5ab3d0245228d5a1b509c64736f6c63430008000033",
  "immutableReferences": {},
  "source": "// SPDX-License-Identifier: MIT\r\npragma solidity >=0.4.22 <0.9.0;\r\n\r\n// \r\ncontract Exchange {\r\n\r\n    // \r\n    string[] public goodsList;\r\n\r\n    // \r\n    function putOnGoods(string memory tokenURI) public returns (string memory) {\r\n        // require nft TODO\r\n        goodsList.push(tokenURI);\r\n        return tokenURI;\r\n    }\r\n}",
  "sourcePath": "E:/onee/nft-exchange-eth/contracts/Exchange.sol",
  "compiler": {
    "name": "solc",
    "version": "0.8.0+commit.c7dfd78e.Emscripten.clang"
  },
  "schemaVersion": "3.3.4",
  "updatedAt": "2021-05-10T12:03:27.592Z",
  "networkType": "ethereum",
  "devdoc": {
    "kind": "dev",
    "methods": {},
    "version": 1
  },
  "userdoc": {
    "kind": "user",
    "methods": {},
    "version": 1
  }
}