{
  "contractName": "Exchange",
  "abi": [
    {
      "inputs": [
        {
          "internalType": "uint256",
          "name": "",
          "type": "uint256"
        }
      ],
      "name": "tokenIds",
      "outputs": [
        {
          "internalType": "uint256",
          "name": "",
          "type": "uint256"
        }
      ],
      "stateMutability": "view",
      "type": "function",
      "constant": true
    },
    {
      "inputs": [],
      "name": "getAllTokenId",
      "outputs": [
        {
          "internalType": "uint256[]",
          "name": "",
          "type": "uint256[]"
        }
      ],
      "stateMutability": "view",
      "type": "function",
      "constant": true
    },
    {
      "inputs": [
        {
          "internalType": "uint256",
          "name": "tokenId",
          "type": "uint256"
        }
      ],
      "name": "putOnNFT",
      "outputs": [
        {
          "internalType": "uint256",
          "name": "",
          "type": "uint256"
        }
      ],
      "stateMutability": "nonpayable",
      "type": "function"
    }
  ],
  "bytecode": "0x608060405234801561001057600080fd5b50610311806100206000396000f3fe608060405234801561001057600080fd5b50600436106100415760003560e01c80630476408914610046578063d58778d614610064578063dbf6a1b514610094575b600080fd5b61004e6100c4565b60405161005b9190610244565b60405180910390f35b61007e60048036038101906100799190610187565b61011c565b60405161008b9190610266565b60405180910390f35b6100ae60048036038101906100a99190610187565b610140565b6040516100bb9190610266565b60405180910390f35b6060600080548060200260200160405190810160405280929190818152602001828054801561011257602002820191906000526020600020905b8154815260200190600101908083116100fe575b5050505050905090565b6000818154811061012c57600080fd5b906000526020600020016000915090505481565b600080829080600181540180825580915050600190039060005260206000200160009091909190915055819050919050565b600081359050610181816102c4565b92915050565b60006020828403121561019957600080fd5b60006101a784828501610172565b91505092915050565b60006101bc8383610226565b60208301905092915050565b60006101d382610291565b6101dd81856102a9565b93506101e883610281565b8060005b8381101561021957815161020088826101b0565b975061020b8361029c565b9250506001810190506101ec565b5085935050505092915050565b61022f816102ba565b82525050565b61023e816102ba565b82525050565b6000602082019050818103600083015261025e81846101c8565b905092915050565b600060208201905061027b6000830184610235565b92915050565b6000819050602082019050919050565b600081519050919050565b6000602082019050919050565b600082825260208201905092915050565b6000819050919050565b6102cd816102ba565b81146102d857600080fd5b5056fea264697066735822122049a0ee9b760f1278d1b402b01e66b45a62c8dac1896970ebd02c48f988d3f38264736f6c63430008000033",
  "immutableReferences": {},
  "source": "// SPDX-License-Identifier: MIT\r\npragma solidity >=0.4.22 <0.9.0;\r\n\r\n// \r\ncontract Exchange {\r\n\r\n    // \r\n    uint[] public tokenIds;\r\n\r\n    // NFT\r\n    function getAllTokenId() external view returns (uint[] memory) {\r\n        return tokenIds;\r\n    }\r\n\r\n    // \r\n    function putOnNFT(uint tokenId) public returns (uint) {\r\n        // require nft TODO\r\n        tokenIds.push(tokenId);\r\n        return tokenId;\r\n    }\r\n}",
  "sourcePath": "E:/onee/nft-exchange-eth/contracts/Exchange.sol",
  "compiler": {
    "name": "solc",
    "version": "0.8.0+commit.c7dfd78e.Emscripten.clang"
  },
  "schemaVersion": "3.3.4",
  "updatedAt": "2021-05-11T01:13:38.146Z",
  "networkType": "ethereum",
  "devdoc": {
    "kind": "dev",
    "methods": {},
    "version": 1
  },
  "userdoc": {
    "kind": "user",
    "methods": {},
    "version": 1
  }
}